:020000040000FA
:040000000DEF00F010
:040008000FEF00F006
:10001800FF0034EF01F0390191A115EF00F017EF5F
:1000280000F022EF00F0A1A11CEF00F01EEF00F09D
:1000380022EF00F077EC01F046EF00F094AF27EFE5
:1000480000F029EF00F034EF00F0A4AF2EEF00F03D
:1000580030EF00F034EF00F072EC01F046EF00F002
:1000680098AD39EF00F03BEF00F046EF00F0A8AD97
:1000780040EF00F042EF00F046EF00F06DEC01F0C9
:1000880046EF00F01100000E3E01DE6F000EDF6F3C
:10009800000EE06F000EE16F000EE46F000EE56FDA
:1000A800000EEA6F000EEC6F000EF16F000EF36F9A
:1000B800000EF46F000EF56F000EF66F000EF76F6E
:1000C800000EF96F000EFA6F000EFB6F000EFC6F4A
:1000D800120EFD6F000EFE6F000EFF6F840EF86F9C
:1000E8001200000EBA6E000EBB6E000EBC6EC26827
:1000F800C368C4683A016069F80E506F4069000E21
:10010800816F000E516F000E416F000E616F000E7F
:10011800426F000E526F000E626F43695369636944
:10012800446954696469080E846F080EC06F0A0E2A
:10013800C26F090EC16F12003901A191D290000E51
:10014800276E030E286E68EC01F039019181A49F97
:10015800D292FE0E276E020E286E63EC01F0390172
:10016800948FA89DD294FC0E276E020E286E5EEC2A
:1001780001F03901988D120045EC01F03E01F8516B
:10018800F30B0409F86FF889160EF16FC48C3A0165
:10019800608D3E01F88FF881F8B1D5EF00F0D7EF08
:1001A80000F0D0EF00F0F051EF51CFEF00F00DEF7D
:1001B80000F021502210D8B4E4EF00F0E6EF00F090
:1001C800F3EF00F002D8F3EF00F00500FA6E2150CB
:1001D800FD6E2250FE6EF850FF6EFA5012001200AB
:1001E80023502410D8B4FBEF00F0FDEF00F00AEF25
:1001F80001F002D80AEF01F00500FA6E2350FD6EF7
:100208002450FE6EF850FF6EFA501200120025506E
:100218002610D8B412EF01F014EF01F021EF01F02D
:1002280002D821EF01F00500FA6E2550FD6E265028
:10023800FE6EF850FF6EFA5012001200000E3901DF
:10024800C06F000EC16F000EC26F000EC36F000EAC
:10025800C46F000EC56F000EC66F000EC76F120088
:1002680000EE01F0200EEE6AE806FDE1080ED56EFC
:10027800000ED66E000ED76E000EF86E0001C0EFAD
:1002880000F07CEC01F022EC01F075EC00F052EC8F
:1002980001F047EC00F0A0EC00F01200700E3901FC
:1002A800D96F000EDB6F000EDD6F020EDF6F000EE0
:1002B800DE6F120027C021F028C022F0120027C0EC
:1002C80023F028C024F0120027C025F028C026F00B
:1002D80012003901A89DDDEC00F012003901A49F3D
:1002E800F4EC00F012003901A1910BEC01F01200BE
:0A02F800D29A120012001200120048
:020000040020DA
:10000000FF0FFF0FFF0FFF0FFF0FFF0FFF0FFF0F80
:020000040030CA
:0A000000FCFFF7FF9FFFFFFFFFFF6B
:00000001FF
